:100000000C945E040C9486040C9486040C94030DEA
:100010000C94D60C0C94A90C0C9486040C948604B5
:100020000C9486040C9486040C9486040C94860428
:100030000C9486040C94DF0A0C9486040C948604B9
:100040000C9477100C9486040C94E7100C94C11057
:100050000C9486040C9486040C9486040C948604F8
:100060000C9486040C948604180A280A2F0A320A73
:100070001B0A1E0A230AAF0AB70AB90ABC0AB70A42
:10008000B90ABC0A05A84CCDB2D44EB93836A9027B
:100090000C50B9918688083CA6AAAA2ABE00000086
:1000A000803F7072696E74436F6E6669673A20694B
:1000B0006C6C6567616C20706172616D65746572EE
:1000C00000200000646F6E652E00777269746543CE
:1000D0006F6E6669673A20696C6C6567616C207049
:1000E0006172616D65746572006779726F4D6F74CE
:1000F0006F72314B70000000000003001E036A079E
:100100006779726F4D6F746F72314B690000000038
:1001100000030022036A076779726F4D6F746F7274
:10012000314B640000000000030026036A07677972
:10013000726F4D6F746F72324B70000000000003DD
:10014000002A036A076779726F4D6F746F72324BC2
:1001500069000000000003002E036A076779726FD0
:100160004D6F746F72324B64000000000003003268
:10017000036A07616E676C654F66667365744D6FE1
:10018000746F7231020038030000616E676C654F56
:1001900066667365744D6F746F723202003A0300C5
:1001A000006469724D6F746F724D6F746F723100BD
:1001B000000001003C0300006469724D6F746F72AF
:1001C0004D6F746F723200000001003D0300006D3E
:1001D0006F746F724E756D6265724D6F746F7231B0
:1001E00004003E0300006D6F746F724E756D6265A2
:1001F000724D6F746F723204003F0300006D6178BE
:1002000050574D6D6F746F724D6F746F7231040083
:10021000400300006D617850574D6D6F746F724DE3
:100220006F746F7232040041030000726566566F8E
:100230006C74616765426174000000000500420350
:1002400000006375746F6666566F6C746167650055
:100250000000000500440300006D6F746F72506F62
:100260007765725363616C6500000000460300000F
:1002700072634162736F6C7574654D6F746F723128
:100280000000004703000072634162736F6C757475
:10029000654D6F746F7232000000480300006D619D
:1002A0007852434D6F746F723100000000000001FE
:1002B00000490300006D617852434D6F746F7232D4
:1002C00000000000000001004A0300006D696E524A
:1002D000434D6F746F723100000000000001004B4D
:1002E0000300006D696E52434D6F746F72320000EF
:1002F0000000000001004C03000072634761696E5A
:100300004D6F746F7231000000000002004D030059
:100310000072634761696E4D6F746F723200000046
:10032000000002004F03000072634C50464D6F7492
:100330006F723100000000000002005103B7067226
:10034000634C50464D6F746F723200000000000025
:1003500002005303B70672634D6F646550504D4DF4
:100360006F746F7231000000005503200972634DF5
:100370006F646550504D4D6F746F72320000000015
:100380005603200972634D6F646550504D41757876
:10039000000000000000005703200972634D6F64E5
:1003A0006550504D46707650000000000000580324
:1003B000200972634D6F646550504D46707652004F
:1003C000000000000059032009726350696E4D6FF0
:1003D0006465434830000000000004005A0320090F
:1003E000726350696E4D6F646543483100000000D0
:1003F0000004005B032009726350696E4D6F6465F1
:10040000434832000000000004005C0320097263CE
:100410004368616E6E656C4D6F746F7231000001E0
:10042000005D03200972634368616E6E656C4D6FF9
:10043000746F7232000001005E032009726343682A
:10044000616E6E656C417578000000000001005F10
:1004500003200972634368616E6E656C4670765066
:100460000000000001006003200972634368616EB0
:100470006E656C467076520000000001006103203A
:10048000096670764761696E4D6F746F7231000056
:1004900000000100620300006670764761696E4DDE
:1004A0006F746F723200000000010063030000727D
:1004B000634C50464D6F746F723146707600000089
:1004C00002006403B70672634C50464D6F746F723E
:1004D0003246707600000002006603B70672634D74
:1004E000696400000000000000000000000002003D
:1004F0006803200966547261636500000000000013
:10050000000000000004006A03000073547261637D
:1005100065000000000000000000000004006C0303
:100520000000656E61626C654779726F00000000C3
:1005300000000000006E030000656E61626C6541A2
:100540004343000000000000000000006F030000B3
:10055000667076467265657A654D6F746F723100AC
:1005600000000072030000667076467265657A6569
:100570004D6F746F723200000000730300006D61F4
:100580007850574D6670764D6F746F72310000046D
:1005900000740300006D617850574D6670764D6FA2
:1005A000746F7232000004007503000066707653A9
:1005B000774D6F746F72310000000000000100760B
:1005C00003000066707653774D6F746F72320000CF
:1005D00000000000010077030000616C7453774154
:1005E000636354696D65000000000001007803003A
:1005F00000000000000000000000000000000000FB
:100600000000000000000000454550524F4D2043BF
:100610005243206661696C65642C20696E69746957
:10062000616C697A6520746F2064656661756C74AD
:100630000000006865202023207072696E742068B5
:10064000656C700000202020706172206779726FE5
:100650004D6F746F72314B6920313230303020234E
:1006600020736574206779726F4D6F746F72314BB0
:100670006920746F203132303030002020207061CA
:1006800072206779726F4D6F746F72314B692020E1
:10069000202020202023206C697374206779726FDA
:1006A0004D6F746F72314B69002020207061722091
:1006B000202020202020202020202020202020203A
:1006C000202023206C69737420616C6C20636F6E32
:1006D00066696720706172616D6574657273002070
:1006E000652E672E00706172203C7061724E616DE4
:1006F000653E203C70617256616C75653E2023201A
:1007000067656E6572616C20706172616D6574659C
:100710007220726561642F73657420636F6D6D6103
:100720006E640073627620202320736176652062F8
:1007300061747465727920766F6C746167650061AD
:1007400063202020232063616C69627261746520DC
:10075000616363006763202020232063616C69620A
:1007600072617465206779726F00726520202023A2
:1007700020726573746F726520636F6E666967209F
:1007800066726F6D20656570726F6D0077652020F1
:10079000202320777269746520636F6E6669672015
:1007A000746F20656570726F6D0073642020202364
:1007B000207365742064656661756C747300004C09
:1007C000697374206F6620636F6D6D616E64733A38
:1007D000002720756E7265636F676E697A656420A5
:1007E000636F6D6D616E642C20747970652048456F
:1007F00020666F722068656C70202E2E2E002700F8
:10080000494E464F3A20004552524F523A20005727
:1008100041524E494E473A20006D657373616765DA
:100820002000454550524F4D2076657273696F6EBA
:10083000206D69736D617463682C20696E697469D9
:10084000616C697A656420746F2064656661756C9B
:100850007400004272754769207265616479000016
:10086000000000240027002A0000000000250028C6
:10087000002B000000000800020100000304070034
:100880000000000000000001020408102040800168
:1008900002040810200102040810200404040404C7
:1008A000040404020202020202030303030303001E
:1008B00000000023002600290000191111241FBE8A
:1008C000CFEFD8E0DEBFCDBF24E0A4E6B1E001C0A9
:1008D0001D92A238B207E1F711E0A0E0B1E0EEE529
:1008E000F3E302C005900D92A436B107D9F714E0E6
:1008F000CEE5D4E004C02197FE010E946F13CD35F0
:10090000D107C9F70E9493110C94AD190C94000003
:10091000FC01918D828D981761F0828DDF01A80F07
:10092000B11D5D968C91928D9F5F9F73928F90E029
:1009300008958FEF9FEF0895FC01918D828D981798
:1009400031F0828DE80FF11D858D90E008958FEFD5
:100950009FEF0895FC01918D228D892F90E0805C9E
:100960009F4F821B91098F739927089580E090E033
:10097000892B29F00E94E80D81110C940000089544
:1009800010924303109242030895F901442329F081
:1009900060837183828393830895648375838683E0
:1009A000978320813181621B730BCB018458934064
:1009B000813B9440B0F420853185C90144E0880F23
:1009C000991F4A95E1F7821B930B680F791F54E03A
:1009D000769567955A95E1F77187608781E08587FD
:1009E00084870895CF92DF92EF92FF92CF93C090C9
:1009F0008401D0908501E0908601F090870180917C
:100A00008301C1E0813009F0C0E09091550391115C
:100A100011C08091560381110DC08091570381113F
:100A200009C080915803811105C080915903882322
:100A300009F479C0CC2309F4C2C020917F01309120
:100A40008001A601421B530B9A01C0927F01D092F4
:100A50008001E0928101F0928201213A5FE0350746
:100A600018F010927E01ABC080917E0180320CF0B4
:100A7000A6C040915D03841302C0911123C09091E0
:100A80005E03891304C09091560391111EC090918A
:100A90005F03891304C090915703911119C090917D
:100AA0006003891304C090915803911114C0909170
:100AB0006103891334C090915903992381F1E8EEC1
:100AC000F1E00BC0E8E8F1E008C0E0EAF1E005C0C1
:100AD000E8EBF1E002C0E0EDF1E0309701F1C48213
:100AE000D582E682F782A90144585340413B5440E5
:100AF000B0F460857185AB0194E0440F551F9A9561
:100B0000E1F7461B570B240F351F44E03695279518
:100B10004A95E1F73187208791E0958794878F5F29
:100B200080937E014CC080915E03811107C020EA52
:100B300031E04C2FC701B6010E94C50480915D03CE
:100B400081110BC080915503811107C028E831E065
:100B50004C2FC701B6010E94C50480915F0381112B
:100B60000BC080915703811107C028EB31E04C2F57
:100B7000C701B6010E94C5048091600381110BC0BA
:100B800080915803811107C020ED31E04C2FC7013F
:100B9000B6010E94C50480916103811110C080914B
:100BA000590381110CC028EE31E04C2FC701B6016A
:100BB000CF91FF90EF90DF90CF900C94C504CF9130
:100BC000FF90EF90DF90CF900895CF92DF92EF9259
:100BD000FF92CF93C0908401D0908501E090860170
:100BE000F090870180918301C1E0813009F0C0E07D
:100BF00080915E03813059F480915603811107C0C2
:100C000020EA31E04C2FC701B6010E94C504809153
:100C10005D03813059F480915503811107C028E8A4
:100C200031E04C2FC701B6010E94C50480915F03DB
:100C3000813059F480915703811107C028EB31E0CE
:100C40004C2FC701B6010E94C5048091600381301A
:100C500059F480915803811107C020ED31E04C2FE9
:100C6000C701B6010E94C50480916103813081F4FF
:100C70008091590381110CC028EE31E04C2FC7013F
:100C8000B601CF91FF90EF90DF90CF900C94C50408
:100C9000CF91FF90EF90DF90CF900895CF92DF92A9
:100CA000EF92FF92CF93C0908401D0908501E090A5
:100CB0008601F090870180918301C1E0813009F0C5
:100CC000C0E080915E03823059F480915603811117
:100CD00007C020EA31E04C2FC701B6010E94C504CD
:100CE00080915D03823059F480915503811107C0D2
:100CF00028E831E04C2FC701B6010E94C50480915D
:100D00005F03823059F480915703811107C028EBAB
:100D100031E04C2FC701B6010E94C50480916003E9
:100D2000823059F480915803811107C020ED31E0E1
:100D30004C2FC701B6010E94C50480916103823027
:100D400081F48091590381110CC028EE31E04C2FC1
:100D5000C701B601CF91FF90EF90DF90CF900C9438
:100D6000C504CF91FF90EF90DF90CF900895CF937F
:100D7000DF93CDE1D3E06CA97DA9072E000C880B91
:100D8000990B0E948C142DEC3CEC4CEC5DE30E9422
:100D900018152AEF3EE74AEA5EE30E9418152EEB8B
:100DA00037E346E05BE30E9476139B01AC016EEBF8
:100DB00077E386E09BE30E94E21360930C0170935B
:100DC0000D0180930E0190930F016EA97FA9072E4C
:100DD000000C880B990B0E948C142DEC3CEC4CEC15
:100DE0005DE30E9418152AEF3EE74AEA5EE30E949F
:100DF00018152EEB37E346E05BE30E9476139B0168
:100E0000AC016EEB77E386E09BE30E94E213609314
:100E100008017093090180930A0190930B0160917E
:100E2000640370916503072E000C880B990B0E94D8
:100E30008C142DEC3CEC4CEC5DE30E9418152AEF71
:100E40003EE74AEA5EE30E9418152EEB37E346E0E0
:100E50005BE30E9476139B01AC016EEB77E386E0C7
:100E60009BE30E94E2136093040170930501809359
:100E70000601909307016091660370916703072E46
:100E8000000C880B990B0E948C142DEC3CEC4CEC64
:100E90005DE30E9418152AEF3EE74AEA5EE30E94EE
:100EA00018152EEB37E346E05BE30E9476139B01B7
:100EB000AC016EEB77E386E09BE30E94E213609364
:100EC0000001709301018093020190930301DF916F
:100ED000CF9108954F925F926F927F928F929F92DF
:100EE000AF92BF92CF92DF92EF92FF920F931F9338
:100EF000CF93DF9302E711E0CDE1D3E06D857E85EE
:100F00008F8598892AE0422E512C612C712CA301E7
:100F100092010E941319F801208331834283538385
:100F200069897A898B899C8938EE832E33E0932EE8
:100F3000A12CB12CA50194010E941319F80124835E
:100F40003583468357836D897E898F89988D44ECDC
:100F5000C42E49E0D42EE12CF12CA70196010E9469
:100F60001319F801208731874287538706E611E07D
:100F700069817A818B819C81A30192010E9413195E
:100F8000F80120833183428353836D817E818F8179
:100F90009885A50194010E941319F80124833583D3
:100FA0004683578369857A858B859C85A701960141
:100FB0000E941319F8012087318742875387DF91F8
:100FC000CF911F910F91FF90EF90DF90CF90BF9046
:100FD000AF909F908F907F906F905F904F9008950B
:100FE000FF920F931F93CF93DF93EC013FB7F894D9
:100FF0008091000390910103A0910203B09103033B
:1010000020910503220F220F220F3FBFBA2FA92FD5
:10101000982F8827820F911DA11DB11D42E0880FD6
:10102000991FAA1FBB1F4A95D1F780938401909303
:101030008501A0938601B093870180916501FF80AF
:101040002D81909165014E81309165013095342359
:101050002923932F922B8F25F92EF8228091650159
:101060008F830885198501151105E1F0D8011396C4
:101070008C919F2D982381F090916501892391E0B7
:1010800009F490E090938301F801848180936401D6
:101090000190F081E02D0995D80115960D911C91D4
:1010A0001697E1CF9BB38C81982349F09BB3892B92
:1010B0008BBBE881F981808180936501BECFDF9190
:1010C000CF911F910F91FF9008958FEB97E00E94B1
:1010D000C90E8EEB97E00E94C90E8AEA97E00E9443
:1010E000C90E8CE897E00E94C90E8AE697E00E943C
:1010F000C90E84E597E00E94C90E8FE397E00E9435
:10110000C90E83E297E00E94C90E85EE96E00E9428
:10111000C90E8FED96E00E94C90E89EA96E00E9402
:10112000C90E8BE796E00E94C90E85E496E00E9406
:10113000C90E84E496E00E94C90E83E396E00E9403
:10114000C90E82E396E00C94C90ECF93DF93EC01B5
:101150008EEF97E00E94A80ECE010E94960E81EDC0
:1011600097E0DF91CF910C94C90ECF92DF92EF926E
:10117000FF920F931F93CF93DF93C0906A03D09099
:101180006B03E0906C03F0906D0310926B03109270
:101190006A0310926D0310926C030E94600F80939B
:1011A00088030DE113E0C0E0D0E0F80161918F0108
:1011B000CE010E9405192196CC36D105B1F7D09207
:1011C0006B03C0926A03F0926D03E0926C03DF91AF
:1011D000CF911F910F91FF90EF90DF90CF900895E6
:1011E0000F931F93CF93DF938C01C9EED0E0A6E05D
:1011F000B3E020E030E0FE01E20FF31FE491ED9355
:101200002F5F3F4F27313105B1F78091190390913E
:101210001A03892B59F041E150E0B80186E093E0D0
:101220000E942118892B29F06796E1CF80E090E099
:1012300002C086E093E0DF91CF911F910F91089556
:1012400080911001882309F45CC080915A03813099
:1012500021F088F0823079F016C060E080E10E94D1
:101260003B1061E080E10E94EF0F62EF74E080E1EB
:101270000E94D70E08C060E080E10E943B1061E050
:1012800080E10E94EF0F80915B03813021F088F0B4
:10129000823079F016C060E08FE00E943B1061E080
:1012A0008FE00E94EF0F65EE75E08FE00E94D70E91
:1012B00008C060E08FE00E943B1061E08FE00E9478
:1012C000EF0F80915C03813021F088F0823079F05B
:1012D00016C060E08EE00E943B1061E08EE00E944C
:1012E000EF0F6EE476E08EE00E94D70E08C060E05B
:1012F0008EE00E943B1061E08EE00E94EF0F1092A2
:101300001001E8E8F1E080E090E04CED55E021E0EC
:10131000F89410821182128213821482158216822E
:1013200017825187408753874287DC01A857BE4FF9
:101330001C962C931C971D962C931D97168617862A
:10134000108A118A128A138A148A158A56961C9258
:10135000569757961C9278947896489688379105B8
:10136000B9F60895FC01848DDF01A80FB11DA35AC1
:10137000BF4F2C91848D90E001968F739927848FB5
:10138000A689B7892C93A089B1898C9180648C93AC
:10139000938D848D981306C00288F389E02D808197
:1013A0008F7D808308950F931F93CF93DF938C01DC
:1013B000EB0189E198E00E94A80E0130110541F08F
:1013C0000230110541F0012B89F480E098E005C05E
:1013D0008FE098E002C087E098E00E94A80ECE015E
:1013E000DF91CF911F910F910C94C90EDF91CF9196
:1013F0001F910F91089561E376E083E090E00C94F3
:10140000D309CF93DF93009709F442C0EC010E9407
:10141000960E81EC90E00E94A80EE989FA89E730E7
:10142000F10560F5EC5CFF4FAB89BC890C946F1340
:101430008C9190E011C06C9170E002C06D917C9134
:1014400080E090E018C06D917D918D919C9113C0CA
:101450008C91082E000C990B0E94E50F0FC08D9106
:101460009C91FACF6D917D918D919C9197FF03C0D6
:101470000E94BE0F03C04AE00E947D0F8BE391E003
:101480000E94960E89E391E0DF91CF910C94960E25
:1014900062EA70E081E090E0DF91CF910C94D30993
:1014A000CF92DF92EF92FF92CF93DF9340E554E02B
:1014B0006BE274E080E090E00E94C118EC01892B9F
:1014C00021F5C9EED0E0A6E0B3E080E090E0FE01B7
:1014D000E80FF91FE491ED93019687319105B9F773
:1014E0008091190390911A03892B31F086E093E0E3
:1014F0000E94010A6796E7CF84EC90E00E94C90E33
:1015000063EC70E083E090E04BC040E554E06BE2B8
:1015100074E080E090E00E94C118009759F4CE0179
:101520000E94F008DF91CF91FF90EF90DF90CF9075
:101530000C94010A0E949A186B017C01CE010E9452
:10154000F008EC01892B41F1E989FA89E730F105CE
:10155000C0F4E55CFF4FAB89BC890C946F1381E04C
:10156000CD28CE28CF2809F480E08C930AC0CC92F5
:1015700008C0CD92DC9205C0CD92DD92ED92FC9236
:101580001397ED89FE89309799F0DF91CF91FF9005
:10159000EF90DF90CF9009946AEC70E081E090E0EA
:1015A000DF91CF91FF90EF90DF90CF900C94D30913
:1015B000DF91CF91FF90EF90DF90CF9008951F9231
:1015C0000F920FB60F9211248F939F93AF93BF93F7
:1015D000809105038F5F803419F08093050321C04B
:1015E000109205038091160187BD8091150188BD79
:1015F000809114018093B400809113018093B30013
:101600008091120190E090938B0080938A008091EA
:10161000110190E0909389008093880081E080938D
:101620000403809105038F7199F4809100039091D8
:101630000103A0910203B09103030196A11DB11D06
:101640008093000390930103A0930203B0930303DC
:10165000BF91AF919F918F910F900FBE0F901F90F0
:1016600018950F931F93CF93DF9300E012E0C0E033
:10167000D0E0BE010D2E000C880B990B0E948C143B
:101680009B01AC010E94761320E030E040E85BE370
:101690000E9418152BED3FE049E450E40E94181514
:1016A0000E94851520E030E04EEF52E40E941815AC
:1016B0000E945414F80161938F012196C115F1E045
:1016C000DF07B9F6DF91CF911F910F910895F8943C
:1016D0000E94310B78940E946A070E9420090C94A2
:1016E000B7061F937727FB01E050FE4F3081E5E5F9
:1016F000E60FF0E0E050FE4F20816655E62FF0E067
:10170000E050FE4F10813403F001359FF00D11249D
:10171000EF2FFF27E058FF4F2403B001259F700DE6
:101720001124672F772760587F4F14039001159F6E
:10173000300D1124232F332720583F4F811107C02C
:10174000E0931601609315012093140108C08130C5
:1017500031F4E093130160931201209311011F9162
:101760000895EDE1F3E08FE0808380E29EE4A0E065
:10177000B0E081839283A383B48340E157E260E0C9
:1017800070E0458356836783708740E45CE960E0DE
:1017900070E0418752876387748785879687A7871C
:1017A000B08B80E49FE1A0E0B0E0818B928BA38BB3
:1017B000B48B80E395E7A0E0B0E0858B968BA78B98
:1017C000B08F87E090E0928F818F148E138E168EEB
:1017D000158E81E0878F2FEF20A311A282A390E5C1
:1017E00093A394A340E253E056A345A348E552E0F7
:1017F00050A747A311A682A783A74EE144A732EEC4
:1018000036A745A737A745E050E051AB40AB53ABF7
:1018100042AB44E150E055AB44AB57AB46AB10AEE6
:1018200011AE12AE13AE14AE80935D0310925E0340
:1018300020935F032093600320936103109262035F
:101840001092630380935A0380935B0380935C033D
:101850002AE030E0309365032093640330936703FC
:10186000209366032CED35E03093690320936803E1
:1018700010926B0310926A0310926D0310926C0326
:1018800080936E0380936F038093700310927103B3
:1018900010927203109273039093740390937503E4
:1018A00010927603109277031092780322E030E0D2
:1018B00030937A032093790380937B0310927D0306
:1018C00010927C0310927F0310927E03109281038A
:1018D000109280031092830310928203109285036A
:1018E000109284031092870310928603109288034B
:1018F00008950F931F93CF93DF930DE113E0C0E0A2
:10190000D0E0CE010E94FD18F80181938F0121964D
:10191000CC36D105B1F7C09188030E94600FC8137F
:1019200006C0DF91CF911F910F910C94670B68E077
:1019300076E081E090E00E94D3090E94B10BDF9134
:10194000CF911F910F910C94B5080E94B10B0C948C
:10195000670B1F920F920FB60F9211242F933F9394
:101960004F935F936F937F938F939F93AF93BF93A7
:10197000EF93FF93E0915204F091530480818093A0
:10198000650182E594E00E94F007FF91EF91BF911D
:10199000AF919F918F917F916F915F914F913F9107
:1019A0002F910F900FBE0F901F9018951F920F92BE
:1019B0000FB60F9211242F933F934F935F936F9322
:1019C0007F938F939F93AF93BF93EF93FF93E09198
:1019D0005C04F0915D048081809365018CE594E066
:1019E0000E94F007FF91EF91BF91AF919F918F916E
:1019F0007F916F915F914F913F912F910F900FBE0B
:101A00000F901F9018951F920F920FB60F921124EE
:101A10002F933F934F935F936F937F938F939F93F6
:101A2000AF93BF93EF93FF93E0916604F091670447
:101A300080818093650186E694E00E94F007FF9123
:101A4000EF91BF91AF919F918F917F916F915F9136
:101A50004F913F912F910F900FBE0F901F901895AF
:101A6000CF93DF93DC01FB012283518340831296E5
:101A7000CD91DC91139798818381892B8883828112
:101A80008D7F813041F415969C9115978381892B28
:101A900015968C93159782818150823040F416966A
:101AA0009C9116978381892B16968C93169790910B
:101AB000680014968C91892B80936800DF91CF91F8
:101AC00008953FB7F89480917A0490917B04A09197
:101AD0007C04B0917D0426B5A89B05C02F3F19F06A
:101AE0000196A11DB11D3FBFBA2FA92F982F88279E
:101AF000820F911DA11DB11DBC01CD0142E0660FF9
:101B0000771F881F991F4A95D1F708958F929F924A
:101B1000AF92BF92CF92DF92EF92FF920E94610D3F
:101B20004B015C018AEFC82ED12CE12CF12C0E94D4
:101B3000610DDC01CB0188199909AA09BB09883E0E
:101B40009340A105B10558F021E0C21AD108E1087F
:101B5000F10888EE880E83E0981EA11CB11CC11408
:101B6000D104E104F10419F7FF90EF90DF90CF90DA
:101B7000BF90AF909F908F900895CF92DF92EF9299
:101B8000FF920F931F93CF93DF936C017A018B0128
:101B9000C0E0D0E0CE15DF0589F0D8016D918D0150
:101BA000D601ED91FC910190F081E02DC6010995DF
:101BB000892B11F47E0102C02196ECCFC701DF9181
:101BC000CF911F910F91FF90EF90DF90CF900895EC
:101BD00089E893E00E94AA0421E0892B09F420E01F
:101BE000822F0895BF92CF92DF92EF92FF920F93D0
:101BF0001F93CF93DF936C017B01C6E2D4E02A816F
:101C000030E02F5F3F4F87E0829FB001839F700DD0
:101C10001124888199810E94421799838883BA8010
:101C20008C0127E0B29E000D111D112444E050E00C
:101C3000B601C8010E942F18F801F682E582B3941C
:101C4000BA82DF91CF911F910F91FF90EF90DF90BB
:101C5000CF90BF9008950E940C18EF92FF920F93BF
:101C60001F93CF93DF93EC0181E0888F9B8D8C8D48
:101C7000981305C0E889F989808185FD24C0F62E76
:101C80000B8D10E00F5F1F4F0F731127E02E8C8D0F
:101C9000E8120CC00FB607FCFACFE889F9898081F9
:101CA00085FFF5CFCE010E94B209F1CF8B8DFE01E9
:101CB000E80FF11DE35AFF4FF0820B8FEA89FB8991
:101CC0008081806207C0EE89FF896083E889F98995
:101CD00080818064808381E090E0DF91CF911F91CB
:101CE0000F91FF90EF900895CF93DF93EC01888DD3
:101CF0008823C9F0EA89FB89808185FD05C0A88910
:101D0000B9898C9186FD0FC00FB607FCF5CF808195
:101D100085FFF2CFA889B9898C9185FFEDCFCE01DF
:101D20000E94B209E7CFDF91CF910895009769F043
:101D3000FC0101900020E9F73197AF01481B590BD6
:101D4000BC0189E893E00C94BD0D80E090E008951B
:101D50000F931F93CF93DF938C01C0E0D0E0F80185
:101D6000EC0FFD1F6491662371F0E0918903F091FF
:101D70008A030190F081E02D89E893E00995892B91
:101D800011F02196ECCFCE01DF91CF911F910F91F1
:101D90000895CF93DF930E94A80EEC0189E391E0B0
:101DA0000E94960E8C0F9D1FDF91CF910895AF92E8
:101DB000BF92DF92EF92FF920F931F93CF93DF9327
:101DC00000D0CDB7DEB7082F10E0F801E556F74F89
:101DD0002491211102C08FEF67C061157105D9F3FD
:101DE00030E0225031092330310540F4220F331FF7
:101DF000D901AD5DBE4FED90FC9002C0E12CF12CFD
:101E0000AB01D82ED701ED91FC91119780811796E7
:101E10008C93179718968D919C911997009779F04C
:101E20005C01FC0184818D1107C021E0B501C7016F
:101E30000E94300D80E038C085819681EFCF87E029
:101E400090E049835A830E941516DC0111961C927A
:101E50001E9212961C92129749815A81892B09F47D
:101E6000BACF1496DC92149781E012968C93129755
:101E700016961C921E921597F801E957F74FE491B8
:101E80001396EC931397F70180859185892B19F4AC
:101E9000B187A08703C0F501B683A58321E0BD010A
:101EA000C7010E94300D81E00F900F90DF91CF911C
:101EB0001F910F91FF90EF90DF90BF90AF9008952A
:101EC000EDE1F3E080E058ED9191892748E0282F7B
:101ED00030E0B901660F672F661F770B672B29F07B
:101EE000C901880F991F852701C0880F415079F7D4
:101EF00093E0E838F90741F708958F929F92AF92E7
:101F0000BF920F931F93CF93DF93CDB7DEB7A19707
:101F10000FB6F894DEBF0FBECDBF19A2423008F451
:101F20004AE08E010F5D1F4F842E912CA12CB12C05
:101F3000A50194010E944519E62FB901CA0101507B
:101F40001109EA3014F4E05D01C0E95CD801EC93BA
:101F5000232B242B252B61F7C8010E94960EA196F6
:101F60000FB6F894DEBF0FBECDBFDF91CF911F91AA
:101F70000F91BF90AF909F908F900895CF92DF9276
:101F8000EF92FF92CF93DF936B017C01E091890385
:101F9000F0918A030190F081E02D6DE289E893E0F1
:101FA0000995EC0166277727CB016C197D098E090D
:101FB0009F094AE00E947D0F8C0F9D1FDF91CF91FA
:101FC000FF90EF90DF90CF900895BC01990F880BA0
:101FD000990B97FD0C94BE0F4AE00C947D0F90E096
:101FE000FC01ED58F74F3491FC01E957F74F24916C
:101FF000FC01E556F74FE491EE2309F43BC033238F
:1020000039F1333091F038F43130A9F0323001F544
:1020100084B58F7D12C0373091F03830A1F0343064
:10202000B9F4809180008F7D03C0809180008F770C
:10203000809380000DC084B58F7784BD09C08091E6
:10204000B0008F7703C08091B0008F7D8093B00087
:10205000F0E0EE0FFF1FE759F74FA591B4918FB74E
:10206000F894EC91611103C020952E2301C02E2B12
:102070002C938FBF0895CF93DF9390E0FC01E95735
:10208000F74F2491FC01E556F74F8491882361F1C5
:1020900090E0880F991FFC01E15AF74FC591D49148
:1020A000FC01E759F74FA591B491611109C09FB7A1
:1020B000F8948881209582238883EC912E230BC08D
:1020C000623061F49FB7F8943881822F8095832322
:1020D0008883EC912E2B2C939FBF06C08FB7F8946A
:1020E000E8812E2B28838FBFDF91CF9108951F9217
:1020F0000F920FB60F9211242F933F938F939F93BC
:10210000AF93BF938091760490917704A091780467
:10211000B09179043091750423E0230F2D3720F41A
:102120000196A11DB11D05C026E8230F0296A11D31
:10213000B11D209375048093760490937704A09347
:102140007804B093790480917A0490917B04A091F3
:102150007C04B0917D040196A11DB11D80937A0489
:1021600090937B04A0937C04B0937D04BF91AF91C6
:102170009F918F913F912F910F900FBE0F901F90C5
:1021800018951F920F920FB60F9211242F933F9321
:102190004F935F936F937F938F939F93AF93BF936F
:1021A000EF93FF9389E893E00E94B209FF91EF91CA
:1021B000BF91AF919F918F917F916F915F914F915F
:1021C0003F912F910F900FBE0F901F9018951F9267
:1021D0000F920FB60F9211242F938F939F93EF932B
:1021E000FF93E0919903F0919A038081E0919F031E
:1021F000F091A00382FD12C090818091A2038F5FB5
:102200008F732091A303821751F0E091A203F0E0B5
:10221000E757FC4F958F8093A20301C08081FF9107
:10222000EF919F918F912F910F900FBE0F901F9064
:102230001895CF93DF93E9E8F3E01382128288EEDA
:1022400093E0A0E0B0E084839583A683B7838DE21A
:1022500091E09183808385EC90E09587848784EC7E
:1022600090E09787868780EC90E0918B808B81EC63
:1022700090E0938B828B82EC90E0958B848B86EC44
:1022800090E0978B868B118E128E138E148EE3EB5B
:10229000F8E085919491E6E6F4E0918380838BE603
:1022A00090E09383828381E0848315821682118675
:1022B0001086E5EBF8E085919491ECE5F4E09183EC
:1022C00080838CE690E09383828382E0848315820E
:1022D000168211861086E7EBF8E085919491E2E58D
:1022E000F4E0918380838DE690E09383828384E0A1
:1022F00084831582168211861086C6E2D4E0198284
:1023000018821A821C821B828AE08F831BA61AA65F
:102310006CE371E08BE294E00E941A18188619A60B
:10232000DF91CF910895789484B5826084BD84B59F
:10233000816084BD85B5826085BD85B5816085BDC0
:1023400080916E00816080936E0010928100809178
:102350008100826080938100809181008160809300
:102360008100809180008160809380008091B10025
:1023700084608093B1008091B00081608093B00050
:1023800080917A00846080937A0080917A008260E4
:1023900080937A0080917A00816080937A008091A6
:1023A0007A00806880937A001092C10083E0809365
:1023B000740461E088E00E943B1061E084E00E94C8
:1023C0003B1061E087E00E943B10E0919903F0919F
:1023D0009A0382E08083E0919503F0919603108246
:1023E000E0919703F091980380E180831092A1031C
:1023F000E0919D03F0919E0386E08083E0919B0332
:10240000F0919C03808180618083E0919B03F09137
:102410009C03808188608083E0919B03F0919C0302
:10242000808180688083E0919B03F0919C03808190
:102430008F7D808363E578E080E090E00E94D3099F
:1024400062E578E083E090E00E94D30965EA7CE0F1
:102450008EE391E00E94F20D65EB78E081E491E07B
:102460000E94F20D69E77CE084E491E00E94F20DA5
:1024700060E57AE087E491E00E94F20D60EC74E0A0
:102480008BE491E00E94F20D6BEF79E08FE491E034
:102490000E94F20D65E678E083E591E00E94F20D7E
:1024A00085EA98E090932A048093290461E083E010
:1024B0000E943B1061E085E00E943B1061E086E0F5
:1024C0000E943B1061E089E00E943B1061E08AE0DD
:1024D0000E943B1061E08BE00E943B1091EA94BDAA
:1024E00081E085BD90938000809381009093B0003F
:1024F0008093B10080916F00816080936F00809124
:102500006E008E7F80936E0078941092B3001092CC
:10251000B400109289001092880010928B001092E3
:102520008A0017BC18BCF8940E94310B789440E0E4
:1025300050E060E070E080913E030E94710B40E04B
:1025400050E060E070E080913F030E94710B0E94B8
:10255000790C80911D038F3051F062E278E081E0C8
:1025600090E00E94D3090E94B10B0E94B5080E941E
:102570006A070E94B7060E94200988E290E09093C3
:1025800071048093700460E088E00E94EF0F60E0C7
:1025900084E00E94EF0F60E087E00E94EF0F84EF7D
:1025A000E82EFF24F39433243A9411E093E0492E6B
:1025B00026E9C22ED12C36E0532E44E6842E912CEF
:1025C000A12CB12C02E055E0752E64E0662E8091BE
:1025D0007404833079F034F48130A9F0823009F446
:1025E00047C072C0853009F466C05CF1863009F4DA
:1025F0003FC06AC0F0921801E092170130923C038C
:102600001093740469C080913C03C0917204D0910E
:102610007304C80FD11D87FDDA95D0937304C0935E
:1026200072044091700450917104BE0180913E0388
:102630000E94710B0E94860DD7FF4EC060927404F9
:102640004BC0F0921801E09217010E948C18A5016E
:1026500094010E94131963337105810591051CF0E3
:102660007092740439C010933C030093740434C016
:1026700080913C03C0917204D0917304C80FD11DA6
:1026800087FDDA95D0937304C0937204409170046F
:1026900050917104BE0180913E030E94710B0E9413
:1026A000860D80911701909118018C179D07A4F455
:1026B0004092740411C0D0921801C0921701109377
:1026C0003C035092740408C086E591E00E94960E87
:1026D00089E391E00E94960E0E94B60478CFEE0F37
:1026E000FF1F0590F491E02D09945058BB27AA27AD
:1026F0000E948D130C94DE140E94D01438F00E94B6
:10270000D71420F039F49F3F19F426F40C94CD141B
:102710000EF4E095E7FB0C94C714E92F0E94EF1428
:1027200058F3BA17620773078407950720F079F406
:10273000A6F50C9411150EF4E0950B2EBA2FA02DD2
:102740000B01B90190010C01CA01A0011124FF275E
:10275000591B99F0593F50F4503E68F11A16F04059
:10276000A22F232F342F4427585FF3CF4695379558
:102770002795A795F0405395C9F77EF41F16BA0B1D
:10278000620B730B840BBAF09150A1F0FF0FBB1FCB
:10279000661F771F881FC2F70EC0BA0F621F731F14
:1027A000841F48F4879577956795B795F7959E3F71
:1027B00008F0B0CF9395880F08F09927EE0F979502
:1027C000879508950E94F6130C94DE140E94D71486
:1027D00058F00E94D01440F029F45F3F29F00C9487
:1027E000C71451110C9412150C94CD140E94EF14BF
:1027F00068F39923B1F3552391F3951B550BBB2730
:10280000AA2762177307840738F09F5F5F4F220F74
:10281000331F441FAA1FA9F335D00E2E3AF0E0E86B
:1028200032D091505040E695001CCAF72BD0FE2FB5
:1028300029D0660F771F881FBB1F26173707480749
:10284000AB07B0E809F0BB0B802DBF01FF27935801
:102850005F4F3AF09E3F510578F00C94C7140C94EA
:1028600012155F3FE4F3983ED4F38695779567950C
:10287000B795F7959F5FC9F7880F911D9695879536
:1028800097F90895E1E0660F771F881FBB1F621755
:1028900073078407BA0720F0621B730B840BBA0B13
:1028A000EE1F88F7E09508950E945B146894B111BB
:1028B0000C94121508950E94F71488F09F5798F011
:1028C000B92F9927B751B0F0E1F0660F771F881F35
:1028D000991F1AF0BA95C9F714C0B13091F00E944F
:1028E0001115B1E008950C941115672F782F8827E2
:1028F000B85F39F0B93FCCF3869577956795B39576
:10290000D9F73EF490958095709561957F4F8F4FE4
:102910009F4F0895E89409C097FB3EF490958095E9
:10292000709561957F4F8F4F9F4F9923A9F0F92F95
:1029300096E9BB279395F695879577956795B79513
:10294000F111F8CFFAF4BB0F11F460FF1BC06F5FF9
:102950007F4F8F4F9F4F16C0882311F096E911C00B
:10296000772321F09EE8872F762F05C0662371F02C
:1029700096E8862F70E060E02AF09A95660F771F40
:10298000881FDAF7880F9695879597F9089597F934
:102990009F6780E870E060E008959FEF80EC089505
:1029A00000240A941616170618060906089500242E
:1029B0000A9412161306140605060895092E0394A8
:1029C000000C11F4882352F0BB0F40F4BF2B11F41C
:1029D00060FF04C06F5F7F4F8F4F9F4F089557FD7B
:1029E0009058440F551F59F05F3F71F04795880F7D
:1029F00097FB991F61F09F3F79F087950895121614
:102A000013061406551FF2CF4695F1DF08C01616BF
:102A100017061806991FF1CF869571056105089470
:102A20000895E894BB2766277727CB0197F9089587
:102A30000E942B150C94DE140E94D01438F00E94D2
:102A4000D71420F0952311F00C94C7140C94CD14D6
:102A500011240C9412150E94EF1470F3959FC1F38A
:102A6000950F50E0551F629FF001729FBB27F00D3C
:102A7000B11D639FAA27F00DB11DAA1F649F662791
:102A8000B00DA11D661F829F2227B00DA11D621FE0
:102A9000739FB00DA11D621F839FA00D611D221F9A
:102AA000749F3327A00D611D231F849F600D211D7E
:102AB000822F762F6A2F11249F5750409AF0F1F001
:102AC00088234AF0EE0FFF1FBB1F661F771F881F6A
:102AD00091505040A9F79E3F510580F00C94C714C7
:102AE0000C9412155F3FE4F3983ED4F386957795E6
:102AF0006795B795F795E7959F5FC1F7FE2B880F10
:102B0000911D9695879597F908959F930E948F152B
:102B10000F9007FCEE5F0C94B8150C94CD140E9436
:102B2000F714D8F3E894E0E0BB279F57F0F02AEDC4
:102B30003FE049EC06C0EE0FBB0F661F771F881FF2
:102B400028F0B23A62077307840728F0B25A620B82
:102B5000730B840BE3959A9572F7803830F49A954D
:102B6000BB0F661F771F881FD2F790480C94CE15B5
:102B7000EF93E0FF07C0A2EA2AED3FE049EC5FEBEC
:102B80000E948D130E94DE140F90039401FC905854
:102B9000E4E8F0E00C94DA159F3F31F0915020F416
:102BA000879577956795B795880F911D9695879529
:102BB00097F908959F938F937F936F93FF93EF936C
:102BC0009B01AC010E941815EF91FF910E94EE1538
:102BD0002F913F914F915F910C941815DF93CF93F4
:102BE0001F930F93FF92EF92DF927B018C01689409
:102BF00006C0DA2EEF010E942B15FE01E894A59184
:102C00002591359145915591A6F3EF010E948D13C1
:102C1000FE019701A801DA9469F7DF90EF90FF9029
:102C20000F911F91CF91DF910895CF93DF93823061
:102C3000910510F482E090E0E0918004F09181042D
:102C400020E030E0C0E0D0E0309711F140815181C8
:102C500048175907C0F04817590761F482819381DA
:102C6000209719F09B838A832BC0909381048093D3
:102C7000800426C02115310519F04217530718F4B6
:102C80009A01BE01DF01EF010280F381E02DDCCF6C
:102C90002115310509F1281B390B2430310590F439
:102CA00012968D919C9113976115710521F0FB018E
:102CB0009383828304C09093810480938004FD01F8
:102CC000329644C0FD01E20FF31F8193919322508D
:102CD00031092D933C933AC020917E0430917F04BA
:102CE000232B41F420911B0130911C0130937F0470
:102CF00020937E042091190130911A01211531058C
:102D000041F42DB73EB740911D0150911E01241B87
:102D1000350BE0917E04F0917F04E217F307A0F4F5
:102D20002E1B3F0B2817390778F0AC014E5F5F4F21
:102D30002417350748F04E0F5F1F50937F044093D0
:102D40007E048193919302C0E0E0F0E0CF01DF9137
:102D5000CF9108950F931F93CF93DF93009709F4BA
:102D60008CC0FC0132971382128200918004109172
:102D700081040115110581F420813181820F931F97
:102D800020917E0430917F042817390779F5F0935C
:102D90007F04E0937E0471C0D80140E050E0AE179C
:102DA000BF0750F412962D913C911397AD01211558
:102DB000310509F1D901F3CF9D01DA013383228373
:102DC00060817181860F971F8217930769F4EC0168
:102DD00028813981260F371F2E5F3F4F3183208393
:102DE0008A819B8193838283452B29F4F09381040C
:102DF000E093800442C01396FC93EE931297ED018A
:102E0000499159919E01240F351FE217F30771F480
:102E100080819181840F951F029611969C938E93C9
:102E20008281938113969C938E931297E0E0F0E059
:102E3000D80112968D919C911397009719F0F80183
:102E40008C01F6CF8D919C9198012E5F3F4F820FA0
:102E5000931F20917E0430917F042817390769F46D
:102E6000309729F4109281041092800402C01382DA
:102E7000128210937F0400937E04DF91CF911F9103
:102E80000F910895A0E0B0E0E8E4F7E10C947A191E
:102E9000EC01009721F4CB010E941516B8C0FC018B
:102EA000E60FF71F9C0122503109E217F30708F4DF
:102EB000ACC0D9010D911C91119706171707B0F0FE
:102EC0000530110508F49FC0C801049786179707BD
:102ED00008F499C002501109061B170B01931193B6
:102EE0006D937C93CF010E94AA168DC05B01A01A3E
:102EF000B10A4C01800E911EA0918004B091810412
:102F000040E050E0E12CF12C109709F44AC0A815DC
:102F1000B905D1F56D907C901197630182E0C80EE0
:102F2000D11CCA14DB0480F1A3014A195B096A01B0
:102F300082E0C80ED11C1296BC9012971396AC91E9
:102F4000B5E0CB16D10440F0B282A3835183408315
:102F5000D9016D937C930AC00E5F1F4FC301800F90
:102F6000911FF90191838083EB2DFA2FE114F10475
:102F700031F0D7011396FC93EE93129744C0F0936F
:102F80008104E09380043FC08D919C911197481774
:102F9000590708F4AC017D0112960D90BC91A02D4B
:102FA000B3CF80917E0490917F0488159905E1F458
:102FB00046175707C8F48091190190911A0100979C
:102FC00041F48DB79EB740911D0150911E01841BA5
:102FD000950BE817F907C8F4F0937F04E0937E049B
:102FE000F901718360830FC0CB010E9415167C012B
:102FF000009759F0A801BE010E941118CE010E944D
:10300000AA16C70104C0CE0102C080E090E0CDB78F
:10301000DEB7EEE00C94961981E090E0F8940C9401
:10302000AD19FB01DC0102C001900D9241505040EE
:10303000D8F70895FB01DC0101900D920020E1F723
:103040000895FB01DC014150504030F08D9101901A
:10305000801919F40020B9F7881B990B0895FB011A
:10306000DC014150504048F001900D920020C9F71A
:1030700001C01D9241505040E0F708958F929F92F9
:10308000AF92BF92CF92DF92EF92FF92CF93DF93F6
:10309000EC01688179818A819B81611571058105C7
:1030A000910521F464E279ED8BE597E02DE133EFB2
:1030B00041E050E00E94131949015A019B01AC0103
:1030C000A7EAB1E40E9432196B017C01ACEEB4EFC7
:1030D000A50194010E944019DC01CB018C0D9D1DBE
:1030E000AE1DBF1DB7FF03C00197A109B04888837B
:1030F0009983AA83BB83BC01CD019F77DF91CF91D8
:10310000FF90EF90DF90CF90BF90AF909F908F9007
:1031100008950E943E1808958FE191E00E943E18A4
:10312000089560931F017093200180932101909373
:10313000220108951F93FC0199278827BC01E89478
:1031400011911032E9F3193010F01E30C8F31B3220
:1031500051F01D3249F4689406C00E94E818610FCE
:10316000711D811D911D119110531A30B0F33EF461
:1031700090958095709561957F4F8F4F9F4F1F91D0
:103180000895FA01A191B081009719F41097E1F028
:10319000CD01DC01CD010D90002011F4C00113C060
:1031A000FB012191222319F02015D9F7F3CFFB0160
:1031B0002191201519F41E92119606C02223C1F701
:1031C0000D900020A1F7D001FA01A193B0830895DA
:1031D000592F482F372F262F660F771F881F991FCB
:1031E000660F771F881F991F620F731F841F951F1B
:1031F000660F771F881F991F0895F999FECF92BD1A
:1032000081BDF89A992780B50895262FF999FECFA8
:103210001FBA92BD81BD20BD0FB6F894FA9AF99AF3
:103220000FBE01960895052E97FB1EF400940E9490
:103230002A1957FD07D00E94451907FC03D04EF408
:103240000C942A1950954095309521953F4F4F4F3A
:103250005F4F089590958095709561957F4F8F4F42
:103260009F4F08950E946719A59F900DB49F900DE0
:10327000A49F800D911D11240895B7FF0C9432195D
:103280000E943219821B930B0895A1E21A2EAA1BE9
:10329000BB1BFD010DC0AA1FBB1FEE1FFF1FA21706
:1032A000B307E407F50720F0A21BB30BE40BF50B03
:1032B000661F771F881F991F1A9469F7609570958C
:1032C000809590959B01AC01BD01CF010895A29F0F
:1032D000B001B39FC001A39F700D811D1124911DEA
:1032E000B29F700D811D1124911D08952F923F9260
:1032F0004F925F926F927F928F929F92AF92BF9206
:10330000CF92DF92EF92FF920F931F93CF93DF93B1
:10331000CDB7DEB7CA1BDB0B0FB6F894DEBF0FBE0E
:10332000CDBF09942A88398848885F846E847D845B
:103330008C849B84AA84B984C884DF80EE80FD805D
:103340000C811B81AA81B981CE0FD11D0FB6F894D3
:0E335000DEBF0FBECDBFED010895F894FFCF94
:10335E000000803F0000803F0000803F0000803F63
:10336E0001808080808080F4010000820480000152
:10337E0000000066045C045204000000002D0EBD27
:10338E000DAA0488049C04740E0D0A0020007364B8
:10339E000077650072650070617200736276007668
:1033AE00657200686500556E6B6E6F776E20737474
:0433BE0061746500D1
:00000001FF
